{"contracts/BoxV3.sol":{"BoxV3":{"abi":[{"anonymous":false,"inputs":[{"indexed":false,"internalType":"string","name":"name","type":"string"}],"name":"NameChanged","type":"event"},{"anonymous":false,"inputs":[{"indexed":false,"internalType":"uint256","name":"newValue","type":"uint256"}],"name":"ValueChanged","type":"event"},{"inputs":[],"name":"increment","outputs":[],"stateMutability":"nonpayable","type":"function"},{"inputs":[],"name":"name","outputs":[{"internalType":"string","name":"","type":"string"}],"stateMutability":"view","type":"function"},{"inputs":[],"name":"retrieve","outputs":[{"internalType":"uint256","name":"","type":"uint256"}],"stateMutability":"view","type":"function"},{"inputs":[{"internalType":"string","name":"_name","type":"string"}],"name":"setName","outputs":[],"stateMutability":"nonpayable","type":"function"},{"inputs":[{"internalType":"uint256","name":"newValue","type":"uint256"}],"name":"store","outputs":[],"stateMutability":"nonpayable","type":"function"}],"evm":{"bytecode":{"linkReferences":{},"object":"608060405234801561001057600080fd5b50610772806100206000396000f3fe608060405234801561001057600080fd5b50600436106100575760003560e01c806306fdde031461005c5780632e64cec11461007a5780636057361d14610098578063c47f0027146100b4578063d09de08a146100d0575b600080fd5b6100646100da565b604051610071919061035e565b60405180910390f35b610082610168565b60405161008f9190610399565b60405180910390f35b6100b260048036038101906100ad91906103f4565b610171565b005b6100ce60048036038101906100c99190610556565b6101b2565b005b6100d8610204565b005b600180546100e7906105ce565b80601f0160208091040260200160405190810160405280929190818152602001828054610113906105ce565b80156101605780601f1061013557610100808354040283529160200191610160565b820191906000526020600020905b81548152906001019060200180831161014357829003601f168201915b505050505081565b60008054905090565b806000819055507f93fe6d397c74fdf1402a8b72e47b68512f0510d7b98a4bc4cbdf6ac7108b3c59816040516101a79190610399565b60405180910390a150565b80600190805190602001906101c8929190610222565b507f4737457377f528cc8afd815f73ecb8b05df80d047dbffc41c17750a4033592bc60016040516101f99190610695565b60405180910390a150565b6102206001610211610168565b61021b91906106e6565b610171565b565b82805461022e906105ce565b90600052602060002090601f0160209004810192826102505760008555610297565b82601f1061026957805160ff1916838001178555610297565b82800160010185558215610297579182015b8281111561029657825182559160200191906001019061027b565b5b5090506102a491906102a8565b5090565b5b808211156102c15760008160009055506001016102a9565b5090565b600081519050919050565b600082825260208201905092915050565b60005b838110156102ff5780820151818401526020810190506102e4565b8381111561030e576000848401525b50505050565b6000601f19601f8301169050919050565b6000610330826102c5565b61033a81856102d0565b935061034a8185602086016102e1565b61035381610314565b840191505092915050565b600060208201905081810360008301526103788184610325565b905092915050565b6000819050919050565b61039381610380565b82525050565b60006020820190506103ae600083018461038a565b92915050565b6000604051905090565b600080fd5b600080fd5b6103d181610380565b81146103dc57600080fd5b50565b6000813590506103ee816103c8565b92915050565b60006020828403121561040a576104096103be565b5b6000610418848285016103df565b91505092915050565b600080fd5b600080fd5b7f4e487b7100000000000000000000000000000000000000000000000000000000600052604160045260246000fd5b61046382610314565b810181811067ffffffffffffffff821117156104825761048161042b565b5b80604052505050565b60006104956103b4565b90506104a1828261045a565b919050565b600067ffffffffffffffff8211156104c1576104c061042b565b5b6104ca82610314565b9050602081019050919050565b82818337600083830152505050565b60006104f96104f4846104a6565b61048b565b90508281526020810184848401111561051557610514610426565b5b6105208482856104d7565b509392505050565b600082601f83011261053d5761053c610421565b5b813561054d8482602086016104e6565b91505092915050565b60006020828403121561056c5761056b6103be565b5b600082013567ffffffffffffffff81111561058a576105896103c3565b5b61059684828501610528565b91505092915050565b7f4e487b7100000000000000000000000000000000000000000000000000000000600052602260045260246000fd5b600060028204905060018216806105e657607f821691505b602082108114156105fa576105f961059f565b5b50919050565b60008190508160005260206000209050919050565b60008154610622816105ce565b61062c81866102d0565b9450600182166000811461064757600181146106595761068c565b60ff198316865260208601935061068c565b61066285610600565b60005b8381101561068457815481890152600182019150602081019050610665565b808801955050505b50505092915050565b600060208201905081810360008301526106af8184610615565b905092915050565b7f4e487b7100000000000000000000000000000000000000000000000000000000600052601160045260246000fd5b60006106f182610380565b91506106fc83610380565b9250827fffffffffffffffffffffffffffffffffffffffffffffffffffffffffffffffff03821115610731576107306106b7565b5b82820190509291505056fea2646970667358221220601fa4baf1ec4720ff09ad39138011e297f68b7b08702910a3fe3464b936101364736f6c634300080c0033","opcodes":"PUSH1 0x80 PUSH1 0x40 MSTORE CALLVALUE DUP1 ISZERO PUSH2 0x10 JUMPI PUSH1 0x0 DUP1 REVERT JUMPDEST POP PUSH2 0x772 DUP1 PUSH2 0x20 PUSH1 0x0 CODECOPY PUSH1 0x0 RETURN INVALID PUSH1 0x80 PUSH1 0x40 MSTORE CALLVALUE DUP1 ISZERO PUSH2 0x10 JUMPI PUSH1 0x0 DUP1 REVERT JUMPDEST POP PUSH1 0x4 CALLDATASIZE LT PUSH2 0x57 JUMPI PUSH1 0x0 CALLDATALOAD PUSH1 0xE0 SHR DUP1 PUSH4 0x6FDDE03 EQ PUSH2 0x5C JUMPI DUP1 PUSH4 0x2E64CEC1 EQ PUSH2 0x7A JUMPI DUP1 PUSH4 0x6057361D EQ PUSH2 0x98 JUMPI DUP1 PUSH4 0xC47F0027 EQ PUSH2 0xB4 JUMPI DUP1 PUSH4 0xD09DE08A EQ PUSH2 0xD0 JUMPI JUMPDEST PUSH1 0x0 DUP1 REVERT JUMPDEST PUSH2 0x64 PUSH2 0xDA JUMP JUMPDEST PUSH1 0x40 MLOAD PUSH2 0x71 SWAP2 SWAP1 PUSH2 0x35E JUMP JUMPDEST PUSH1 0x40 MLOAD DUP1 SWAP2 SUB SWAP1 RETURN JUMPDEST PUSH2 0x82 PUSH2 0x168 JUMP JUMPDEST PUSH1 0x40 MLOAD PUSH2 0x8F SWAP2 SWAP1 PUSH2 0x399 JUMP JUMPDEST PUSH1 0x40 MLOAD DUP1 SWAP2 SUB SWAP1 RETURN JUMPDEST PUSH2 0xB2 PUSH1 0x4 DUP1 CALLDATASIZE SUB DUP2 ADD SWAP1 PUSH2 0xAD SWAP2 SWAP1 PUSH2 0x3F4 JUMP JUMPDEST PUSH2 0x171 JUMP JUMPDEST STOP JUMPDEST PUSH2 0xCE PUSH1 0x4 DUP1 CALLDATASIZE SUB DUP2 ADD SWAP1 PUSH2 0xC9 SWAP2 SWAP1 PUSH2 0x556 JUMP JUMPDEST PUSH2 0x1B2 JUMP JUMPDEST STOP JUMPDEST PUSH2 0xD8 PUSH2 0x204 JUMP JUMPDEST STOP JUMPDEST PUSH1 0x1 DUP1 SLOAD PUSH2 0xE7 SWAP1 PUSH2 0x5CE JUMP JUMPDEST DUP1 PUSH1 0x1F ADD PUSH1 0x20 DUP1 SWAP2 DIV MUL PUSH1 0x20 ADD PUSH1 0x40 MLOAD SWAP1 DUP2 ADD PUSH1 0x40 MSTORE DUP1 SWAP3 SWAP2 SWAP1 DUP2 DUP2 MSTORE PUSH1 0x20 ADD DUP3 DUP1 SLOAD PUSH2 0x113 SWAP1 PUSH2 0x5CE JUMP JUMPDEST DUP1 ISZERO PUSH2 0x160 JUMPI DUP1 PUSH1 0x1F LT PUSH2 0x135 JUMPI PUSH2 0x100 DUP1 DUP4 SLOAD DIV MUL DUP4 MSTORE SWAP2 PUSH1 0x20 ADD SWAP2 PUSH2 0x160 JUMP JUMPDEST DUP3 ADD SWAP2 SWAP1 PUSH1 0x0 MSTORE PUSH1 0x20 PUSH1 0x0 KECCAK256 SWAP1 JUMPDEST DUP2 SLOAD DUP2 MSTORE SWAP1 PUSH1 0x1 ADD SWAP1 PUSH1 0x20 ADD DUP1 DUP4 GT PUSH2 0x143 JUMPI DUP3 SWAP1 SUB PUSH1 0x1F AND DUP3 ADD SWAP2 JUMPDEST POP POP POP POP POP DUP2 JUMP JUMPDEST PUSH1 0x0 DUP1 SLOAD SWAP1 POP SWAP1 JUMP JUMPDEST DUP1 PUSH1 0x0 DUP2 SWAP1 SSTORE POP PUSH32 0x93FE6D397C74FDF1402A8B72E47B68512F0510D7B98A4BC4CBDF6AC7108B3C59 DUP2 PUSH1 0x40 MLOAD PUSH2 0x1A7 SWAP2 SWAP1 PUSH2 0x399 JUMP JUMPDEST PUSH1 0x40 MLOAD DUP1 SWAP2 SUB SWAP1 LOG1 POP JUMP JUMPDEST DUP1 PUSH1 0x1 SWAP1 DUP1 MLOAD SWAP1 PUSH1 0x20 ADD SWAP1 PUSH2 0x1C8 SWAP3 SWAP2 SWAP1 PUSH2 0x222 JUMP JUMPDEST POP PUSH32 0x4737457377F528CC8AFD815F73ECB8B05DF80D047DBFFC41C17750A4033592BC PUSH1 0x1 PUSH1 0x40 MLOAD PUSH2 0x1F9 SWAP2 SWAP1 PUSH2 0x695 JUMP JUMPDEST PUSH1 0x40 MLOAD DUP1 SWAP2 SUB SWAP1 LOG1 POP JUMP JUMPDEST PUSH2 0x220 PUSH1 0x1 PUSH2 0x211 PUSH2 0x168 JUMP JUMPDEST PUSH2 0x21B SWAP2 SWAP1 PUSH2 0x6E6 JUMP JUMPDEST PUSH2 0x171 JUMP JUMPDEST JUMP JUMPDEST DUP3 DUP1 SLOAD PUSH2 0x22E SWAP1 PUSH2 0x5CE JUMP JUMPDEST SWAP1 PUSH1 0x0 MSTORE PUSH1 0x20 PUSH1 0x0 KECCAK256 SWAP1 PUSH1 0x1F ADD PUSH1 0x20 SWAP1 DIV DUP2 ADD SWAP3 DUP3 PUSH2 0x250 JUMPI PUSH1 0x0 DUP6 SSTORE PUSH2 0x297 JUMP JUMPDEST DUP3 PUSH1 0x1F LT PUSH2 0x269 JUMPI DUP1 MLOAD PUSH1 0xFF NOT AND DUP4 DUP1 ADD OR DUP6 SSTORE PUSH2 0x297 JUMP JUMPDEST DUP3 DUP1 ADD PUSH1 0x1 ADD DUP6 SSTORE DUP3 ISZERO PUSH2 0x297 JUMPI SWAP2 DUP3 ADD JUMPDEST DUP3 DUP2 GT ISZERO PUSH2 0x296 JUMPI DUP3 MLOAD DUP3 SSTORE SWAP2 PUSH1 0x20 ADD SWAP2 SWAP1 PUSH1 0x1 ADD SWAP1 PUSH2 0x27B JUMP JUMPDEST JUMPDEST POP SWAP1 POP PUSH2 0x2A4 SWAP2 SWAP1 PUSH2 0x2A8 JUMP JUMPDEST POP SWAP1 JUMP JUMPDEST JUMPDEST DUP1 DUP3 GT ISZERO PUSH2 0x2C1 JUMPI PUSH1 0x0 DUP2 PUSH1 0x0 SWAP1 SSTORE POP PUSH1 0x1 ADD PUSH2 0x2A9 JUMP JUMPDEST POP SWAP1 JUMP JUMPDEST PUSH1 0x0 DUP2 MLOAD SWAP1 POP SWAP2 SWAP1 POP JUMP JUMPDEST PUSH1 0x0 DUP3 DUP3 MSTORE PUSH1 0x20 DUP3 ADD SWAP1 POP SWAP3 SWAP2 POP POP JUMP JUMPDEST PUSH1 0x0 JUMPDEST DUP4 DUP2 LT ISZERO PUSH2 0x2FF JUMPI DUP1 DUP3 ADD MLOAD DUP2 DUP5 ADD MSTORE PUSH1 0x20 DUP2 ADD SWAP1 POP PUSH2 0x2E4 JUMP JUMPDEST DUP4 DUP2 GT ISZERO PUSH2 0x30E JUMPI PUSH1 0x0 DUP5 DUP5 ADD MSTORE JUMPDEST POP POP POP POP JUMP JUMPDEST PUSH1 0x0 PUSH1 0x1F NOT PUSH1 0x1F DUP4 ADD AND SWAP1 POP SWAP2 SWAP1 POP JUMP JUMPDEST PUSH1 0x0 PUSH2 0x330 DUP3 PUSH2 0x2C5 JUMP JUMPDEST PUSH2 0x33A DUP2 DUP6 PUSH2 0x2D0 JUMP JUMPDEST SWAP4 POP PUSH2 0x34A DUP2 DUP6 PUSH1 0x20 DUP7 ADD PUSH2 0x2E1 JUMP JUMPDEST PUSH2 0x353 DUP2 PUSH2 0x314 JUMP JUMPDEST DUP5 ADD SWAP2 POP POP SWAP3 SWAP2 POP POP JUMP JUMPDEST PUSH1 0x0 PUSH1 0x20 DUP3 ADD SWAP1 POP DUP2 DUP2 SUB PUSH1 0x0 DUP4 ADD MSTORE PUSH2 0x378 DUP2 DUP5 PUSH2 0x325 JUMP JUMPDEST SWAP1 POP SWAP3 SWAP2 POP POP JUMP JUMPDEST PUSH1 0x0 DUP2 SWAP1 POP SWAP2 SWAP1 POP JUMP JUMPDEST PUSH2 0x393 DUP2 PUSH2 0x380 JUMP JUMPDEST DUP3 MSTORE POP POP JUMP JUMPDEST PUSH1 0x0 PUSH1 0x20 DUP3 ADD SWAP1 POP PUSH2 0x3AE PUSH1 0x0 DUP4 ADD DUP5 PUSH2 0x38A JUMP JUMPDEST SWAP3 SWAP2 POP POP JUMP JUMPDEST PUSH1 0x0 PUSH1 0x40 MLOAD SWAP1 POP SWAP1 JUMP JUMPDEST PUSH1 0x0 DUP1 REVERT JUMPDEST PUSH1 0x0 DUP1 REVERT JUMPDEST PUSH2 0x3D1 DUP2 PUSH2 0x380 JUMP JUMPDEST DUP2 EQ PUSH2 0x3DC JUMPI PUSH1 0x0 DUP1 REVERT JUMPDEST POP JUMP JUMPDEST PUSH1 0x0 DUP2 CALLDATALOAD SWAP1 POP PUSH2 0x3EE DUP2 PUSH2 0x3C8 JUMP JUMPDEST SWAP3 SWAP2 POP POP JUMP JUMPDEST PUSH1 0x0 PUSH1 0x20 DUP3 DUP5 SUB SLT ISZERO PUSH2 0x40A JUMPI PUSH2 0x409 PUSH2 0x3BE JUMP JUMPDEST JUMPDEST PUSH1 0x0 PUSH2 0x418 DUP5 DUP3 DUP6 ADD PUSH2 0x3DF JUMP JUMPDEST SWAP2 POP POP SWAP3 SWAP2 POP POP JUMP JUMPDEST PUSH1 0x0 DUP1 REVERT JUMPDEST PUSH1 0x0 DUP1 REVERT JUMPDEST PUSH32 0x4E487B7100000000000000000000000000000000000000000000000000000000 PUSH1 0x0 MSTORE PUSH1 0x41 PUSH1 0x4 MSTORE PUSH1 0x24 PUSH1 0x0 REVERT JUMPDEST PUSH2 0x463 DUP3 PUSH2 0x314 JUMP JUMPDEST DUP2 ADD DUP2 DUP2 LT PUSH8 0xFFFFFFFFFFFFFFFF DUP3 GT OR ISZERO PUSH2 0x482 JUMPI PUSH2 0x481 PUSH2 0x42B JUMP JUMPDEST JUMPDEST DUP1 PUSH1 0x40 MSTORE POP POP POP JUMP JUMPDEST PUSH1 0x0 PUSH2 0x495 PUSH2 0x3B4 JUMP JUMPDEST SWAP1 POP PUSH2 0x4A1 DUP3 DUP3 PUSH2 0x45A JUMP JUMPDEST SWAP2 SWAP1 POP JUMP JUMPDEST PUSH1 0x0 PUSH8 0xFFFFFFFFFFFFFFFF DUP3 GT ISZERO PUSH2 0x4C1 JUMPI PUSH2 0x4C0 PUSH2 0x42B JUMP JUMPDEST JUMPDEST PUSH2 0x4CA DUP3 PUSH2 0x314 JUMP JUMPDEST SWAP1 POP PUSH1 0x20 DUP2 ADD SWAP1 POP SWAP2 SWAP1 POP JUMP JUMPDEST DUP3 DUP2 DUP4 CALLDATACOPY PUSH1 0x0 DUP4 DUP4 ADD MSTORE POP POP POP JUMP JUMPDEST PUSH1 0x0 PUSH2 0x4F9 PUSH2 0x4F4 DUP5 PUSH2 0x4A6 JUMP JUMPDEST PUSH2 0x48B JUMP JUMPDEST SWAP1 POP DUP3 DUP2 MSTORE PUSH1 0x20 DUP2 ADD DUP5 DUP5 DUP5 ADD GT ISZERO PUSH2 0x515 JUMPI PUSH2 0x514 PUSH2 0x426 JUMP JUMPDEST JUMPDEST PUSH2 0x520 DUP5 DUP3 DUP6 PUSH2 0x4D7 JUMP JUMPDEST POP SWAP4 SWAP3 POP POP POP JUMP JUMPDEST PUSH1 0x0 DUP3 PUSH1 0x1F DUP4 ADD SLT PUSH2 0x53D JUMPI PUSH2 0x53C PUSH2 0x421 JUMP JUMPDEST JUMPDEST DUP2 CALLDATALOAD PUSH2 0x54D DUP5 DUP3 PUSH1 0x20 DUP7 ADD PUSH2 0x4E6 JUMP JUMPDEST SWAP2 POP POP SWAP3 SWAP2 POP POP JUMP JUMPDEST PUSH1 0x0 PUSH1 0x20 DUP3 DUP5 SUB SLT ISZERO PUSH2 0x56C JUMPI PUSH2 0x56B PUSH2 0x3BE JUMP JUMPDEST JUMPDEST PUSH1 0x0 DUP3 ADD CALLDATALOAD PUSH8 0xFFFFFFFFFFFFFFFF DUP2 GT ISZERO PUSH2 0x58A JUMPI PUSH2 0x589 PUSH2 0x3C3 JUMP JUMPDEST JUMPDEST PUSH2 0x596 DUP5 DUP3 DUP6 ADD PUSH2 0x528 JUMP JUMPDEST SWAP2 POP POP SWAP3 SWAP2 POP POP JUMP JUMPDEST PUSH32 0x4E487B7100000000000000000000000000000000000000000000000000000000 PUSH1 0x0 MSTORE PUSH1 0x22 PUSH1 0x4 MSTORE PUSH1 0x24 PUSH1 0x0 REVERT JUMPDEST PUSH1 0x0 PUSH1 0x2 DUP3 DIV SWAP1 POP PUSH1 0x1 DUP3 AND DUP1 PUSH2 0x5E6 JUMPI PUSH1 0x7F DUP3 AND SWAP2 POP JUMPDEST PUSH1 0x20 DUP3 LT DUP2 EQ ISZERO PUSH2 0x5FA JUMPI PUSH2 0x5F9 PUSH2 0x59F JUMP JUMPDEST JUMPDEST POP SWAP2 SWAP1 POP JUMP JUMPDEST PUSH1 0x0 DUP2 SWAP1 POP DUP2 PUSH1 0x0 MSTORE PUSH1 0x20 PUSH1 0x0 KECCAK256 SWAP1 POP SWAP2 SWAP1 POP JUMP JUMPDEST PUSH1 0x0 DUP2 SLOAD PUSH2 0x622 DUP2 PUSH2 0x5CE JUMP JUMPDEST PUSH2 0x62C DUP2 DUP7 PUSH2 0x2D0 JUMP JUMPDEST SWAP5 POP PUSH1 0x1 DUP3 AND PUSH1 0x0 DUP2 EQ PUSH2 0x647 JUMPI PUSH1 0x1 DUP2 EQ PUSH2 0x659 JUMPI PUSH2 0x68C JUMP JUMPDEST PUSH1 0xFF NOT DUP4 AND DUP7 MSTORE PUSH1 0x20 DUP7 ADD SWAP4 POP PUSH2 0x68C JUMP JUMPDEST PUSH2 0x662 DUP6 PUSH2 0x600 JUMP JUMPDEST PUSH1 0x0 JUMPDEST DUP4 DUP2 LT ISZERO PUSH2 0x684 JUMPI DUP2 SLOAD DUP2 DUP10 ADD MSTORE PUSH1 0x1 DUP3 ADD SWAP2 POP PUSH1 0x20 DUP2 ADD SWAP1 POP PUSH2 0x665 JUMP JUMPDEST DUP1 DUP9 ADD SWAP6 POP POP POP JUMPDEST POP POP POP SWAP3 SWAP2 POP POP JUMP JUMPDEST PUSH1 0x0 PUSH1 0x20 DUP3 ADD SWAP1 POP DUP2 DUP2 SUB PUSH1 0x0 DUP4 ADD MSTORE PUSH2 0x6AF DUP2 DUP5 PUSH2 0x615 JUMP JUMPDEST SWAP1 POP SWAP3 SWAP2 POP POP JUMP JUMPDEST PUSH32 0x4E487B7100000000000000000000000000000000000000000000000000000000 PUSH1 0x0 MSTORE PUSH1 0x11 PUSH1 0x4 MSTORE PUSH1 0x24 PUSH1 0x0 REVERT JUMPDEST PUSH1 0x0 PUSH2 0x6F1 DUP3 PUSH2 0x380 JUMP JUMPDEST SWAP2 POP PUSH2 0x6FC DUP4 PUSH2 0x380 JUMP JUMPDEST SWAP3 POP DUP3 PUSH32 0xFFFFFFFFFFFFFFFFFFFFFFFFFFFFFFFFFFFFFFFFFFFFFFFFFFFFFFFFFFFFFFFF SUB DUP3 GT ISZERO PUSH2 0x731 JUMPI PUSH2 0x730 PUSH2 0x6B7 JUMP JUMPDEST JUMPDEST DUP3 DUP3 ADD SWAP1 POP SWAP3 SWAP2 POP POP JUMP INVALID LOG2 PUSH5 0x6970667358 0x22 SLT KECCAK256 PUSH1 0x1F LOG4 0xBA CALL 0xEC SELFBALANCE KECCAK256 SELFDESTRUCT MULMOD 0xAD CODECOPY SGT DUP1 GT 0xE2 SWAP8 0xF6 DUP12 PUSH28 0x8702910A3FE3464B936101364736F6C634300080C00330000000000 "},"methodIdentifiers":{"increment()":"d09de08a","name()":"06fdde03","retrieve()":"2e64cec1","setName(string)":"c47f0027","store(uint256)":"6057361d"}},"storageLayout":{"storage":[{"astId":3,"contract":"contracts/BoxV3.sol:BoxV3","label":"value","offset":0,"slot":"0","type":"t_uint256"},{"astId":54,"contract":"contracts/BoxV3.sol:BoxV3","label":"name","offset":0,"slot":"1","type":"t_string_storage"}],"types":{"t_string_storage":{"encoding":"bytes","label":"string","numberOfBytes":"32"},"t_uint256":{"encoding":"inplace","label":"uint256","numberOfBytes":"32"}}}}}}