{
  "_format": "hh-sol-artifact-1",
  "contractName": "BoxV3",
  "sourceName": "contracts/BoxV3.sol",
  "abi": [
    {
      "anonymous": false,
      "inputs": [
        {
          "indexed": false,
          "internalType": "string",
          "name": "name",
          "type": "string"
        }
      ],
      "name": "NameChanged",
      "type": "event"
    },
    {
      "anonymous": false,
      "inputs": [
        {
          "indexed": false,
          "internalType": "uint256",
          "name": "newValue",
          "type": "uint256"
        }
      ],
      "name": "ValueChanged",
      "type": "event"
    },
    {
      "inputs": [],
      "name": "increment",
      "outputs": [],
      "stateMutability": "nonpayable",
      "type": "function"
    },
    {
      "inputs": [],
      "name": "name",
      "outputs": [
        {
          "internalType": "string",
          "name": "",
          "type": "string"
        }
      ],
      "stateMutability": "view",
      "type": "function"
    },
    {
      "inputs": [],
      "name": "retrieve",
      "outputs": [
        {
          "internalType": "uint256",
          "name": "",
          "type": "uint256"
        }
      ],
      "stateMutability": "view",
      "type": "function"
    },
    {
      "inputs": [
        {
          "internalType": "string",
          "name": "_name",
          "type": "string"
        }
      ],
      "name": "setName",
      "outputs": [],
      "stateMutability": "nonpayable",
      "type": "function"
    },
    {
      "inputs": [
        {
          "internalType": "uint256",
          "name": "newValue",
          "type": "uint256"
        }
      ],
      "name": "store",
      "outputs": [],
      "stateMutability": "nonpayable",
      "type": "function"
    }
  ],
  "bytecode": "0x608060405234801561001057600080fd5b50610772806100206000396000f3fe608060405234801561001057600080fd5b50600436106100575760003560e01c806306fdde031461005c5780632e64cec11461007a5780636057361d14610098578063c47f0027146100b4578063d09de08a146100d0575b600080fd5b6100646100da565b604051610071919061035e565b60405180910390f35b610082610168565b60405161008f9190610399565b60405180910390f35b6100b260048036038101906100ad91906103f4565b610171565b005b6100ce60048036038101906100c99190610556565b6101b2565b005b6100d8610204565b005b600180546100e7906105ce565b80601f0160208091040260200160405190810160405280929190818152602001828054610113906105ce565b80156101605780601f1061013557610100808354040283529160200191610160565b820191906000526020600020905b81548152906001019060200180831161014357829003601f168201915b505050505081565b60008054905090565b806000819055507f93fe6d397c74fdf1402a8b72e47b68512f0510d7b98a4bc4cbdf6ac7108b3c59816040516101a79190610399565b60405180910390a150565b80600190805190602001906101c8929190610222565b507f4737457377f528cc8afd815f73ecb8b05df80d047dbffc41c17750a4033592bc60016040516101f99190610695565b60405180910390a150565b6102206001610211610168565b61021b91906106e6565b610171565b565b82805461022e906105ce565b90600052602060002090601f0160209004810192826102505760008555610297565b82601f1061026957805160ff1916838001178555610297565b82800160010185558215610297579182015b8281111561029657825182559160200191906001019061027b565b5b5090506102a491906102a8565b5090565b5b808211156102c15760008160009055506001016102a9565b5090565b600081519050919050565b600082825260208201905092915050565b60005b838110156102ff5780820151818401526020810190506102e4565b8381111561030e576000848401525b50505050565b6000601f19601f8301169050919050565b6000610330826102c5565b61033a81856102d0565b935061034a8185602086016102e1565b61035381610314565b840191505092915050565b600060208201905081810360008301526103788184610325565b905092915050565b6000819050919050565b61039381610380565b82525050565b60006020820190506103ae600083018461038a565b92915050565b6000604051905090565b600080fd5b600080fd5b6103d181610380565b81146103dc57600080fd5b50565b6000813590506103ee816103c8565b92915050565b60006020828403121561040a576104096103be565b5b6000610418848285016103df565b91505092915050565b600080fd5b600080fd5b7f4e487b7100000000000000000000000000000000000000000000000000000000600052604160045260246000fd5b61046382610314565b810181811067ffffffffffffffff821117156104825761048161042b565b5b80604052505050565b60006104956103b4565b90506104a1828261045a565b919050565b600067ffffffffffffffff8211156104c1576104c061042b565b5b6104ca82610314565b9050602081019050919050565b82818337600083830152505050565b60006104f96104f4846104a6565b61048b565b90508281526020810184848401111561051557610514610426565b5b6105208482856104d7565b509392505050565b600082601f83011261053d5761053c610421565b5b813561054d8482602086016104e6565b91505092915050565b60006020828403121561056c5761056b6103be565b5b600082013567ffffffffffffffff81111561058a576105896103c3565b5b61059684828501610528565b91505092915050565b7f4e487b7100000000000000000000000000000000000000000000000000000000600052602260045260246000fd5b600060028204905060018216806105e657607f821691505b602082108114156105fa576105f961059f565b5b50919050565b60008190508160005260206000209050919050565b60008154610622816105ce565b61062c81866102d0565b9450600182166000811461064757600181146106595761068c565b60ff198316865260208601935061068c565b61066285610600565b60005b8381101561068457815481890152600182019150602081019050610665565b808801955050505b50505092915050565b600060208201905081810360008301526106af8184610615565b905092915050565b7f4e487b7100000000000000000000000000000000000000000000000000000000600052601160045260246000fd5b60006106f182610380565b91506106fc83610380565b9250827fffffffffffffffffffffffffffffffffffffffffffffffffffffffffffffffff03821115610731576107306106b7565b5b82820190509291505056fea2646970667358221220601fa4baf1ec4720ff09ad39138011e297f68b7b08702910a3fe3464b936101364736f6c634300080c0033",
  "linkReferences": {},
  "deployedLinkReferences": {}
}