{
  "_format": "hh-sol-artifact-1",
  "contractName": "BoxV4",
  "sourceName": "contracts/BoxV4.sol",
  "abi": [
    {
      "anonymous": false,
      "inputs": [
        {
          "indexed": false,
          "internalType": "string",
          "name": "name",
          "type": "string"
        }
      ],
      "name": "NameChanged",
      "type": "event"
    },
    {
      "anonymous": false,
      "inputs": [
        {
          "indexed": false,
          "internalType": "uint256",
          "name": "newValue",
          "type": "uint256"
        }
      ],
      "name": "ValueChanged",
      "type": "event"
    },
    {
      "inputs": [],
      "name": "getName",
      "outputs": [
        {
          "internalType": "string",
          "name": "",
          "type": "string"
        }
      ],
      "stateMutability": "view",
      "type": "function"
    },
    {
      "inputs": [],
      "name": "increment",
      "outputs": [],
      "stateMutability": "nonpayable",
      "type": "function"
    },
    {
      "inputs": [],
      "name": "retrieve",
      "outputs": [
        {
          "internalType": "uint256",
          "name": "",
          "type": "uint256"
        }
      ],
      "stateMutability": "view",
      "type": "function"
    },
    {
      "inputs": [
        {
          "internalType": "string",
          "name": "_name",
          "type": "string"
        }
      ],
      "name": "setName",
      "outputs": [],
      "stateMutability": "nonpayable",
      "type": "function"
    },
    {
      "inputs": [
        {
          "internalType": "uint256",
          "name": "newValue",
          "type": "uint256"
        }
      ],
      "name": "store",
      "outputs": [],
      "stateMutability": "nonpayable",
      "type": "function"
    }
  ],
  "bytecode": "0x608060405234801561001057600080fd5b506107e2806100206000396000f3fe608060405234801561001057600080fd5b50600436106100575760003560e01c806317d7de7c1461005c5780632e64cec11461007a5780636057361d14610098578063c47f0027146100b4578063d09de08a146100d0575b600080fd5b6100646100da565b60405161007191906102f8565b60405180910390f35b610082610102565b60405161008f9190610333565b60405180910390f35b6100b260048036038101906100ad919061038e565b61010b565b005b6100ce60048036038101906100c991906104f0565b61014c565b005b6100d861019e565b005b606060016040516020016100ee919061065f565b604051602081830303815290604052905090565b60008054905090565b806000819055507f93fe6d397c74fdf1402a8b72e47b68512f0510d7b98a4bc4cbdf6ac7108b3c59816040516101419190610333565b60405180910390a150565b80600190805190602001906101629291906101bc565b507f4737457377f528cc8afd815f73ecb8b05df80d047dbffc41c17750a4033592bc60016040516101939190610705565b60405180910390a150565b6101ba60016101ab610102565b6101b59190610756565b61010b565b565b8280546101c89061058e565b90600052602060002090601f0160209004810192826101ea5760008555610231565b82601f1061020357805160ff1916838001178555610231565b82800160010185558215610231579182015b82811115610230578251825591602001919060010190610215565b5b50905061023e9190610242565b5090565b5b8082111561025b576000816000905550600101610243565b5090565b600081519050919050565b600082825260208201905092915050565b60005b8381101561029957808201518184015260208101905061027e565b838111156102a8576000848401525b50505050565b6000601f19601f8301169050919050565b60006102ca8261025f565b6102d4818561026a565b93506102e481856020860161027b565b6102ed816102ae565b840191505092915050565b6000602082019050818103600083015261031281846102bf565b905092915050565b6000819050919050565b61032d8161031a565b82525050565b60006020820190506103486000830184610324565b92915050565b6000604051905090565b600080fd5b600080fd5b61036b8161031a565b811461037657600080fd5b50565b60008135905061038881610362565b92915050565b6000602082840312156103a4576103a3610358565b5b60006103b284828501610379565b91505092915050565b600080fd5b600080fd5b7f4e487b7100000000000000000000000000000000000000000000000000000000600052604160045260246000fd5b6103fd826102ae565b810181811067ffffffffffffffff8211171561041c5761041b6103c5565b5b80604052505050565b600061042f61034e565b905061043b82826103f4565b919050565b600067ffffffffffffffff82111561045b5761045a6103c5565b5b610464826102ae565b9050602081019050919050565b82818337600083830152505050565b600061049361048e84610440565b610425565b9050828152602081018484840111156104af576104ae6103c0565b5b6104ba848285610471565b509392505050565b600082601f8301126104d7576104d66103bb565b5b81356104e7848260208601610480565b91505092915050565b60006020828403121561050657610505610358565b5b600082013567ffffffffffffffff8111156105245761052361035d565b5b610530848285016104c2565b91505092915050565b7f4e616d653a200000000000000000000000000000000000000000000000000000815250565b7f4e487b7100000000000000000000000000000000000000000000000000000000600052602260045260246000fd5b600060028204905060018216806105a657607f821691505b602082108114156105ba576105b961055f565b5b50919050565b600081905092915050565b60008190508160005260206000209050919050565b600081546105ed8161058e565b6105f781866105c0565b94506001821660008114610612576001811461062357610656565b60ff19831686528186019350610656565b61062c856105cb565b60005b8381101561064e5781548189015260018201915060208101905061062f565b838801955050505b50505092915050565b600061066a82610539565b60068201915061067a82846105e0565b915081905092915050565b600081546106928161058e565b61069c818661026a565b945060018216600081146106b757600181146106c9576106fc565b60ff19831686526020860193506106fc565b6106d2856105cb565b60005b838110156106f4578154818901526001820191506020810190506106d5565b808801955050505b50505092915050565b6000602082019050818103600083015261071f8184610685565b905092915050565b7f4e487b7100000000000000000000000000000000000000000000000000000000600052601160045260246000fd5b60006107618261031a565b915061076c8361031a565b9250827fffffffffffffffffffffffffffffffffffffffffffffffffffffffffffffffff038211156107a1576107a0610727565b5b82820190509291505056fea26469706673582212202605c947627416a6591687721ebf5a4120253235c5f597be3441ab6172916e9864736f6c634300080c0033",
  "linkReferences": {},
  "deployedLinkReferences": {}
}